:1000000019C1000047C1000045C1000043C1000004
:1000100041C100003FC100003DC100003BC10000E4
:1000200039C1000037C1000035C1000033C10000F4
:1000300031C100002FC100002DC100002BC1000004
:1000400029C1000027C1000025C1000023C1000014
:1000500021C100001FC100001DC10000F1C400004B
:1000600019C1000060C5000035C5000013C10000C3
:1000700011C100000FC100000DC100000BC1000044
:1000800009C1000007C1000005C1000003C1000054
:1000900001C10000FFC00000FDC00000FBC0000067
:1000A000F9C00000F7C00000F5C00000F3C0000078
:1000B000F1C00000EFC00000EDC00000EBC0000088
:1000C000E9C00000E7C00000E5C00000E3C0000098
:1000D000E1C00000DFC00000DDC00000DBC00000A8
:1000E000D9C000004D0350033F0343034703870378
:1000F000540358035E03620366036C0370037403C6
:1001000087037A037E038203FE03030408041204B8
:100110001C04950426042E04360440044A045404A6
:1001200063046D049504770481048B0400002100AE
:10013000240027002A002D003000330001010000B8
:10014000040107010A0100002200250028002B00FD
:100150002E003100340002010000050108010B01EE
:1001600005050505070508080808020202020A0A33
:100170000808040404040101010101010101030351
:10018000030303030303040707070C0C0C0C0C0CFC
:100190000C0C0202020206060606060606060B0BF9
:1001A0000B0B0B0B0B0B010210202008081020403A
:1001B000102040800201020108040201010204082B
:1001C00010204080804020100804020180040201B9
:1001D0008040201008040201080402010102040802
:1001E00010204080010204081020408000000A0B0B
:1001F00002090C0D0E0807030401000000000000B6
:1002000000000000000000000000000000000000EE
:1002100000000000000000001211100000000000AB
:1002200000000000000000000000000000000000CE
:100230000000C90811241FBECFEFD1E2DEBFCDBF41
:1002400000E00CBF12E0A0E0B2E0E6EBF2E100E07B
:100250000BBF02C007900D92AE31B107D9F722E073
:10026000AEE1B2E001C01D92A73EB207E1F711E096
:10027000CAE1D1E000E006C021970109802FFE010C
:100280000E944D09C931D10780E00807A9F781D440
:100290000C945909B5CECF92DF92EF92FF920F9353
:1002A0001F93CF93DF936C017A018B01C0E0D0E004
:1002B000CE15DF0581F0D8016D918D01D601ED914C
:1002C000FC910190F081E02DC6011995892B11F068
:1002D0002196EECF7E01C701DF91CF911F910F9143
:1002E000FF90EF90DF90CF900895089580E090E028
:1002F0000895FC01538D448D252F30E0842F90E02C
:10030000821B930B541710F0CF9608950197089510
:10031000FC01918D828D981761F0828DDF01A80F0D
:10032000B11D5D968C91928D9F5F9F73928F90E02F
:1003300008958FEF9FEF0895FC01918D828D98179E
:1003400031F0828DE80FF11D858D90E008958FEFDB
:100350009FEF08952FB7F89480914602909147023D
:10036000A0914802B09149022FBF8093520290930E
:100370005302A0935402B09355028AE492E0DCDF6A
:1003800097FF26C02FB7F8948091460290914702BC
:10039000A0914802B09149022FBF40915202509162
:1003A00053026091540270915502841B950BA60B69
:1003B000B70B40914E0250914F02609150027091E4
:1003C000510284179507A607B707B8F28FEF9FEF82
:1003D0000895CF92DF92EF92FF92CF93BBDFFC01A3
:1003E00097FD0AC08D32910559F0C0970A9740F0E9
:1003F0008AE492E08DDFF2CF60E070E0CB013DC097
:10040000C12CD12C7601C0E0E130F105F9F0ED32DC
:10041000F105D9F0CF01C0970A97C0F4AAE0B0E087
:10042000A7019601FFD66F01FF0FEE08FF08DC0160
:10043000CB018C0D9D1DAE1DBF1D6C017D0120E308
:10044000C21AD108E108F10801C0C1E08AE492E0D3
:100450005FDF80DFFC01C0970A97B0F2E130F10561
:1004600099F2CC2341F066277727CB016C197D09DF
:100470008E099F0902C0C701B601CF91FF90EF908E
:10048000DF90CF900895FC01918D228D892F90E00F
:10049000805C9F4F821B91098F73992708958AE48E
:1004A00092E0F1DF21E0892B09F420E0822F08950A
:1004B000FC01848DDF01A80FB11DA35ABF4F2C9101
:1004C000848D90E001968F739927848FA689B789D0
:1004D0002C93A089B1898C91837080648C93938DC7
:1004E000848D981306C00288F389E02D80818F7D6A
:1004F00080830895EF92FF920F931F93CF93DF9322
:10050000EC0181E0888F9B8D8C8D981305C0E88964
:10051000F989808185FD25C0F62E0B8D10E00F5FD7
:100520001F4F0F731127E02E8C8DE8120BC00FB6F2
:1005300007FCFACFE889F989808185FFF5CFCE01E4
:10054000B7DFF2CF8B8DFE01E80FF11DE35AFF4FAD
:10055000F0829FB7F8940B8FEA89FB8980818062D3
:100560000AC09FB7F894EE89FF896083E889F9890A
:1005700080818370806480839FBF81E090E0DF9101
:10058000CF911F910F91FF90EF900895CF93DF933C
:10059000EC01888D8823C1F0EA89FB89808185FD83
:1005A00005C0A889B9898C9186FD0EC00FB607FCDD
:1005B000F5CF808185FFF2CFA889B9898C9185FF1D
:1005C000EDCFCE0175DFE8CFDF91CF91089580E0C8
:1005D00090E0892B19F063DF811125C080E090E065
:1005E000892B41F080E090E0892B21F00E940000EF
:1005F00081111CC080E090E0892B41F080E090E008
:10060000892B21F00E940000811113C080E090E04E
:10061000892BA1F080E090E0892B81F00E940000FE
:1006200081110AC008950E940000D8CF0E940000E6
:10063000E1CF0E940000EACF0C9400000895362F0D
:1006400090E0FC01E451FE4F4491FC01EA55FE4F5D
:100650002491FC01E05AFE4F9491992309F46BC058
:10066000442309F454C050E0FA013197E231F10516
:1006700008F04DC08827EE58FF4F8F4F0EC680916F
:1006800080008F7707C0809180008F7D03C08091AC
:100690008000877F809380003AC084B58F7702C046
:1006A00084B58F7D84BD33C08091B0008F7703C047
:1006B0008091B0008F7D8093B00029C08091900020
:1006C0008F7707C0809190008F7D03C0809190004C
:1006D000877F809390001BC08091A0008F7707C018
:1006E0008091A0008F7D03C08091A000877F8093C0
:1006F000A0000DC0809120018F7707C0809120015C
:100700008F7D03C080912001877F80932001E92F96
:10071000F0E0EE0FFF1FEA5BFE4FA591B4919FB78B
:10072000F894311104C08C912095282302C0EC91DB
:100730002E2B2C939FBF0895CF93DF9390E0FC0165
:10074000EA55FE4F2491FC01E05AFE4F8491882324
:1007500061F190E0880F991FFC01E45DFE4FC591A7
:10076000D491FC01EA5BFE4FA591B491611109C0DF
:100770009FB7F8948881209582238883EC912E235B
:100780000BC0623061F49FB7F8948881322F3095A6
:1007900083238883EC912E2B2C939FBF06C08FB7A9
:1007A000F894E8812E2B28838FBFDF91CF91089595
:1007B0001F93CF93DF93182FEB0161E0BDDF2097EC
:1007C00011F460E004C0CF3FD10531F461E0812F26
:1007D000DF91CF911F9133CFE12FF0E0E451FE4F35
:1007E000E4918E2F90E0FC013197E231F10508F0A1
:1007F0009CC08827EC57FF4F8F4F4FC584B580684A
:1008000084BDC7BD97C084B5806284BDC8BD92C099
:1008100080918000806880938000D0938900C0938D
:10082000880088C080918000806280938000D0938F
:100830008B00C0938A007EC0809180008860809386
:100840008000D0938D00C0938C0074C08091B00064
:1008500080688093B000C093B3006CC08091B000FA
:1008600080628093B000C093B40064C08091900017
:10087000806880939000D0939900C09398005AC0EC
:1008800080919000806280939000D0939B00C093F1
:100890009A0050C080919000886080939000D0931F
:1008A0009D00C0939C0046C08091A000806880930A
:1008B000A0008091A0008F7B8093A000D093A9001E
:1008C000C093A80037C08091A00080628093A000F0
:1008D000D093AB00C093AA002DC08091A000886087
:1008E0008093A000D093AD00C093AC0023C0809152
:1008F0002001806880932001D0932901C0932801B2
:1009000019C080912001806280932001D0932B0137
:10091000C0932A010FC0809120018860809320013C
:10092000D0932D01C0932C0105C0C038D1050CF027
:100930004DCF47CFDF91CF911F9108958F929F9216
:10094000AF92BF920F931F93CF93DF93CDB7DEB7D4
:10095000A1970FB6F894DEBF0FBECDBF19A24230EB
:1009600008F44AE08E010F5D1F4F842E912CA12CBC
:10097000B12CA501940160D4E62FB901CA01015040
:100980001109EA3014F4E05D01C0E95CD801EC9390
:10099000232B242B252B69F70115110569F0F8018C
:1009A00001900020E9F73197AF01401B510BB801CE
:1009B0008AE492E070DC02C080E090E0A1960FB67D
:1009C000F894DEBF0FBECDBFDF91CF911F910F9185
:1009D000BF90AF909F908F900895CF92DF92EF924B
:1009E000FF92CF93DF936C01990FEE08FF08F7FE9B
:1009F00011C06DE28AE492E07DDDEC016627772785
:100A0000CB016C197D098E099F094AE097DFC80F59
:100A1000D91F05C04AE0C701B60190DFEC0142E0F2
:100A200050E06BE172E08AE492E035DC8C0F9D1FB0
:100A3000DF91CF91FF90EF90DF90CF90089535D464
:100A40001F920F920FB60F9211242F933F938F9303
:100A50009F93AF93BF938091460290914702A091DC
:100A60004802B09149023091450223E0230F2D370F
:100A700020F40196A11DB11D05C026E8230F0296A2
:100A8000A11DB11D20934502809346029093470219
:100A9000A0934802B0934902809141029091420292
:100AA000A0914302B09144020196A11DB11D809313
:100AB000410290934202A0934302B0934402BF913B
:100AC000AF919F918F913F912F910F900FBE0F90FB
:100AD0001F9018951F920F920FB60F9211240BB60C
:100AE0000F922F933F934F935F936F937F938F93C7
:100AF0009F93AF93BF93EF93FF938AE492E0D8DC88
:100B0000FF91EF91BF91AF919F918F917F916F91E5
:100B10005F914F913F912F910F900BBE0F900FBEA1
:100B20000F901F9018951F920F920FB60F921124DD
:100B30000BB60F922F938F939F93EF93FF93E091B8
:100B40005A02F0915B028081E0916002F0916102B3
:100B500082FD12C09081809163028F5F8F7320911C
:100B60006402821751F0E0916302F0E0E65BFD4F12
:100B7000958F8093630201C08081FF91EF919F91D7
:100B80008F912F910F900BBE0F900FBE0F901F9063
:100B90001895789484B5826084BD84B5816084BDE5
:100BA00085B5826085BD85B5816085BD80916E000B
:100BB000816080936E00109281008091810082603C
:100BC0008093810080918100816080938100809179
:100BD00080008160809380008091B1008460809368
:100BE000B1008091B00081608093B000809191004D
:100BF0008260809391008091910081608093910048
:100C0000809190008160809390008091A10082602B
:100C10008093A1008091A10081608093A1008091C8
:100C2000A00081608093A000809121018260809368
:100C30002101809121018160809321018091200117
:100C400081608093200180917A00846080937A0093
:100C500080917A00826080937A0080917A0081602E
:100C600080937A0080917A00806880937A00109255
:100C7000C100E0915A02F0915B0282E08083E09132
:100C80005602F09157021082E0915802F0915902F9
:100C90008FEC808310926202E0915E02F0915F021D
:100CA00086E08083E0915C02F0915D02808180614A
:100CB0008083E0915C02F0915D0280818860808396
:100CC000E0915C02F0915D02808180688083E09118
:100CD0005C02F0915D0280818F7D808360E0809175
:100CE0003F022ADD61E080912B0226DD61E08091E8
:100CF000290222DD61E0809133021EDD61E08091F6
:100D000031021ADD61E080912F0216DD61E08091F1
:100D10002D0212DDD4E6CAE78AE492E0B4DB1816AD
:100D200019060CF094C18AE492E0F2DA182F8D30A3
:100D300099F38A3709F4AFC08A3009F074C1E091A1
:100D40002702F0912802E25EFD4F108220911E02E0
:100D5000022E000C330B20533109129FC001139F48
:100D6000900D112420911F02820F911D27FD9A954D
:100D7000C79790933A028093390240912002042E43
:100D8000000C550B40535109D49FB001D59F700DF5
:100D9000112440912102042E000C550B405351099F
:100DA000149F9001159F300D1124260F371F40917D
:100DB0002202240F311D47FD3A952F5231403093C6
:100DC00038022093370240912302042E000C550B69
:100DD00040535109D49FB001D59F700D112440910B
:100DE0002402042E000C550B40535109149F90010E
:100DF000159F300D1124260F371F40912502240F17
:100E0000311D47FD3A952F523140309336022093E1
:100E10003502E3DD8091370290913802DEDD80916A
:100E2000350290913602D9DD1092280210922702E5
:100E300073CF8AE492E080DA8236910509F03DC0F2
:100E40008AE492E065DA80930702C3DA70932C0299
:100E500060932B0260E080913F026EDC61E0809144
:100E60002B026ADC61E08091290266DC61E08091FE
:100E7000330262DC61E0809131025EDC61E08091EE
:100E80002F025ADC61E080912D0256DC809108022D
:100E90008A3709F08AC08AE492E04EDA81369105F9
:100EA00009F0C7CF8AE492E033DA8093080291DA3E
:100EB0007093400260933F02CDCF8AE492E03CDA27
:100EC0008336910559F48AE492E022DA809306028F
:100ED00080DA70932A0260932902BCCF8AE492E000
:100EE0002BDA8436910559F48AE492E011DA809382
:100EF00005026FDA7093300260932F02ABCF8AE461
:100F000092E01ADA8536910559F48AE492E000DA23
:100F1000809304025EDA70932E0260932D029ACFC2
:100F20008AE492E009DA8636910559F48AE492E07F
:100F3000EFD9809303024DDA709334026093330249
:100F400089CF8AE492E0F8D98736910559F48AE48A
:100F500092E0DED9809302023CDA70933202609311
:100F6000310278CF8AE492E0E7D98836910559F4C6
:100F70008AE492E0CDD9809301022BDA70933C028F
:100F800060933B0267CF8AE492E0D6D98936910517
:100F900009F081CF8AE492E0BBD98093000219DA8C
:100FA00070933E0260933D0255CF809107028A37CD
:100FB00009F471CF809106028A3709F46CCF8091D1
:100FC00005028A3709F467CF809104028A3709F451
:100FD00062CF809103028A3709F45DCF80910202CB
:100FE0008A3709F458CF809101028A3709F453CF28
:100FF000809100028A3709F44ECFC0930802C09353
:101000000702C0930602C0930502C0930402C09376
:101010000302C0930202C0930102C0930002109227
:10102000280210922702809127029091280288308E
:10103000910508F071CE9C012F5F3F4F309328023D
:1010400020932702FC01E25EFD4F108365CE809164
:101050003F02863308F0865390917B00282F28703A
:10106000977F922B90937B008770806480937C00A5
:1010700080917A00806480937A0080917A0086FD66
:10108000FCCF2091780030917900C0903B02D09045
:101090003C020D2C000CEE08FF08C901330FAA0B0F
:1010A000BB0B9C01AD012C193D094E095F09AFE056
:1010B000B0E0B8D020913D0230913E02235031097A
:1010C0008901330F220B330BA90198012C193D091B
:1010D0004E095F098BD0DA01C9010797A109B1094F
:1010E0009C018091390290913A022817390719F42E
:1010F00060E070E010C08217930744F460E070E095
:1011000080912B0255DB60E870E00AC02817390790
:1011100054F460E870E080912B024ADB60E070E0FC
:101120008091290245DB0091370210913802101698
:1011300011063CF4B80180912F023ADB60E070E0C8
:1011400009C060E070E080912F0232DB66277727CC
:10115000601B710B80912D022BDB009135021091E9
:101160003602101611063CF4B8018091330220DBE0
:1011700060E070E009C060E070E08091330218DB4D
:1011800066277727601B710B8091310211DB1FDA14
:10119000C3CDEAE4F2E01382128288EE93E0A0E08D
:1011A000B0E084839583A683B7838DE092E091833A
:1011B000808385EC90E09587848784EC90E0978726
:1011C000868780EC90E0918B808B81EC90E0938B14
:1011D000828B82EC90E0958B848B86EC90E0978BF1
:1011E000868B118E128E138E148E0895052E97FB0A
:1011F00016F400940FD057FD05D01ED007FC02D086
:1012000046F408C050954095309521953F4F4F4F7B
:101210005F4F089590958095709561957F4F8F4FA2
:101220009F4F08952BD0A59F900DB49F900DA49F24
:10123000800D911D11240895A1E21A2EAA1BBB1B3B
:10124000FD010DC0AA1FBB1FEE1FFF1FA217B30792
:10125000E407F50720F0A21BB30BE40BF50B661FA8
:10126000771F881F991F1A9469F76095709580956C
:1012700090959B01AC01BD01CF010895A29FB001E3
:10128000B39FC001A39F700D811D1124911DB29FBA
:10129000700D811D1124911D0895EE0FFF1F881FF1
:1012A0008BBF0790F691E02D199481E090E0F894BF
:0612B00000C0F894FFCF1E
:1012B6007A7A7A7A7A7A7A7A7A000000007A024B17
:0E12C600017901C602430288019C010D0A0055
:00000001FF
